{
    "_format": "hh-sol-artifact-1",
    "contractName": "MembershipPoints",
    "sourceName": "contracts/MembershipPoints.sol",
    "abi": [
        {
            "inputs": [
                {
                    "internalType": "uint256",
                    "name": "amount",
                    "type": "uint256"
                }
            ],
            "name": "addPoints",
            "outputs": [],
            "stateMutability": "nonpayable",
            "type": "function"
        },
        {
            "inputs": [],
            "name": "getPoints",
            "outputs": [
                {
                    "internalType": "uint256",
                    "name": "",
                    "type": "uint256"
                }
            ],
            "stateMutability": "view",
            "type": "function"
        },
        {
            "inputs": [],
            "name": "getTier",
            "outputs": [
                {
                    "internalType": "string",
                    "name": "",
                    "type": "string"
                }
            ],
            "stateMutability": "view",
            "type": "function"
        },
        {
            "inputs": [
                {
                    "internalType": "address",
                    "name": "",
                    "type": "address"
                }
            ],
            "name": "points",
            "outputs": [
                {
                    "internalType": "uint256",
                    "name": "",
                    "type": "uint256"
                }
            ],
            "stateMutability": "view",
            "type": "function"
        },
        {
            "inputs": [
                {
                    "internalType": "uint256",
                    "name": "amount",
                    "type": "uint256"
                }
            ],
            "name": "redeemPoints",
            "outputs": [],
            "stateMutability": "nonpayable",
            "type": "function"
        }
    ],
    "bytecode": "0x6080604052348015600f57600080fd5b506106a78061001f6000396000f3fe608060405234801561001057600080fd5b50600436106100575760003560e01c806312fb1cbd1461005c578063358b8166146100785780635ad701c2146100a8578063e92e92e7146100c6578063f4b7095b146100e2575b600080fd5b610076600480360381019061007191906103da565b610100565b005b610092600480360381019061008d9190610465565b610158565b60405161009f91906104a1565b60405180910390f35b6100b0610170565b6040516100bd919061054c565b60405180910390f35b6100e060048036038101906100db91906103da565b610280565b005b6100ea610359565b6040516100f791906104a1565b60405180910390f35b806000803373ffffffffffffffffffffffffffffffffffffffff1673ffffffffffffffffffffffffffffffffffffffff168152602001908152602001600020600082825461014e919061059d565b9250508190555050565b60006020528060005260406000206000915090505481565b606060008060003373ffffffffffffffffffffffffffffffffffffffff1673ffffffffffffffffffffffffffffffffffffffff16815260200190815260200160002054905061271081106101fc576040518060400160405280600481526020017f476f6c640000000000000000000000000000000000000000000000000000000081525091505061027d565b6113888110610243576040518060400160405280600681526020017f53696c766572000000000000000000000000000000000000000000000000000081525091505061027d565b6040518060400160405280600681526020017f42726f6e7a6500000000000000000000000000000000000000000000000000008152509150505b90565b806000803373ffffffffffffffffffffffffffffffffffffffff1673ffffffffffffffffffffffffffffffffffffffff168152602001908152602001600020541015610301576040517f08c379a00000000000000000000000000000000000000000000000000000000081526004016102f89061061d565b60405180910390fd5b806000803373ffffffffffffffffffffffffffffffffffffffff1673ffffffffffffffffffffffffffffffffffffffff168152602001908152602001600020600082825461034f919061063d565b9250508190555050565b60008060003373ffffffffffffffffffffffffffffffffffffffff1673ffffffffffffffffffffffffffffffffffffffff16815260200190815260200160002054905090565b600080fd5b6000819050919050565b6103b7816103a4565b81146103c257600080fd5b50565b6000813590506103d4816103ae565b92915050565b6000602082840312156103f0576103ef61039f565b5b60006103fe848285016103c5565b91505092915050565b600073ffffffffffffffffffffffffffffffffffffffff82169050919050565b600061043282610407565b9050919050565b61044281610427565b811461044d57600080fd5b50565b60008135905061045f81610439565b92915050565b60006020828403121561047b5761047a61039f565b5b600061048984828501610450565b91505092915050565b61049b816103a4565b82525050565b60006020820190506104b66000830184610492565b92915050565b600081519050919050565b600082825260208201905092915050565b60005b838110156104f65780820151818401526020810190506104db565b60008484015250505050565b6000601f19601f8301169050919050565b600061051e826104bc565b61052881856104c7565b93506105388185602086016104d8565b61054181610502565b840191505092915050565b600060208201905081810360008301526105668184610513565b905092915050565b7f4e487b7100000000000000000000000000000000000000000000000000000000600052601160045260246000fd5b60006105a8826103a4565b91506105b3836103a4565b92508282019050808211156105cb576105ca61056e565b5b92915050565b7f4e6f7420656e6f75676820706f696e7473000000000000000000000000000000600082015250565b60006106076011836104c7565b9150610612826105d1565b602082019050919050565b60006020820190508181036000830152610636816105fa565b9050919050565b6000610648826103a4565b9150610653836103a4565b925082820390508181111561066b5761066a61056e565b5b9291505056fea26469706673582212204a92401a86286e4b1b382e9cf2138ec029bd024c9302a5ee0cec6818b1a2319b64736f6c634300081c0033",
    "linkReferences": {},
    "deployedLinkReferences": {}
}